S014000066696E616C70726F6A6563742E737265630F
S113000071C000008EC000008CC000008AC00000D7
S113001088C0000086C0000084C0000082C00000C8
S113002080C000007EC000007CC000007AC00000D8
S113003078C0000076C0000074C0000072C00000E8
S113004070C000006EC000006CC000006AC00000F8
S113005068C0000066C0000064C0000062C0000008
S113006060C000005EC000005CC000005AC0000018
S113007058C0000057C0000054C0000052C0000027
S113008050C000004EC000004CC000004AC0000038
S113009048C0000046C0000044C0000042C0000048
S11300A040C000003EC000003CC000003AC0000058
S11300B038C0000036C0000034C0000032C0000068
S11300C030C000002EC000002CC000002AC0000078
S11300D028C0000026C0000024C0000022C0000088
S11300E020C0000011241FBECFEFD1E2DEBFCDBF80
S11300F000E00CBF12E0A0E0B2E0E8EAF2E000E0C9
S11301000BBF02C007900D92A830B107D9F722E0C7
S1130110A8E0B2E001C01D92AA30B207E1F741D0D5
S1130120C1C06ECF1F920F920FB60F9211240BB65F
S11301300F922F933F938F939F93EF93FF9380910D
S1130140780090E0909309028093080280917900EE
S113015090E0982F88272091080230910902822B81
S1130160932B9093090280930802EAE7F0E08081E0
S113017080648083FF91EF919F918F913F912F91A4
S11301800F900BBE0F900FBE0F901F9018958FEF1E
S1130190809307011092080111B882B917B888B981
S11301A00895F5DF04C061E070E087E528D0309958
S11301B0FACF60ED70E086E422D080B18F70823097
S11301C061F0883099F08130B9F404C061E070E0E6
S11301D087E515D00099FACF0FC061E070E086E49E
S11301E00ED00AC061E070E087E509D03099FACFFB
S11301F060ED70E086E403D010920801DECF86340F
S113020051F1873509F04DC0AB01440F551F460F1E
S1130210571F440F551F569547955695479560E0CF
S113022070E015C0FC01EC5FFD4F208120930801B4
S1130230EFEBFDE53197F1F700C00000019602C035
S113024080E090E08430910568F36F5F7F4F64171E
S11302507507B0F30895AB01440F551F460F571FA0
S1130260440F551F569547955695479560E070E0A5
S113027015C0FC01E050FE4F208120930801EFEBF4
S1130280FDE53197F1F700C00000019602C080E05F
S113029090E08430910568F36F5F7F4F64177507B2
S10B02A0B0F30895F894FFCFB8
S10B02A808040201010204082C
S9030000FC
