S014000066696E616C70726F6A6563742E737265630F
S113000071C000008EC000008CC000008AC00000D7
S113001088C0000086C0000084C0000082C00000C8
S113002080C000007EC000007CC000007AC00000D8
S113003078C0000076C0000074C0000072C00000E8
S113004070C000006EC000006CC000006AC00000F8
S113005068C0000066C0000064C0000062C0000008
S113006060C00000BAC100005CC000005AC00000BB
S113007058C0000056C0000054C0000052C0000028
S113008050C000004EC000004CC000004AC0000038
S113009048C0000046C0000044C0000042C0000048
S11300A040C000003EC000003CC000003AC0000058
S11300B038C0000036C0000034C0000032C0000068
S11300C030C000002EC000002CC000002AC0000078
S11300D028C0000026C0000024C0000022C0000088
S11300E020C0000011241FBECFEFD1E2DEBFCDBF80
S11300F000E00CBF12E0A0E0B2E0ECE6F7E000E0C4
S11301000BBF02C007900D92A833B107D9F722E0C4
S1130110A8E3B2E001C01D92A435B207E1F735D0DF
S113012023C36ECF10BA8CEF81BB87E880937A002B
S11301300895ECE7F0E09081907E892B80838081A4
S113014080648083EAE7F0E080818064808380912A
S11301507A0084FFFCCF309178008091790090E0A0
S1130160982F8827EAE7F0E0208120612083832B01
S113017008958FEF809307011092080111B882B996
S113018017B888B980E684B90895CF93DF93CDB7C3
S1130190DEB764970FB6F894DEBF0FBECDBFE9DFBC
S11301A0C1DF0DD1789489E0E8E0F2E0DE01119638
S11301B001900D928A95E1F7FE013A968BE0DF01FA
S11301C01D928A95E9F7E0E8F0E08081826A8083F5
S11301D0E1E8F0E080818B61808387E893E190938C
S11301E08700809386008AEF90E090938900809343
S11301F0880090938B0080938A0091E080E023C074
S1130200209152022130F9F41092520211C0F901E6
S1130210E75CFD4F2081421301C08F5FE1E0F0E015
S1130220EC0FFD1FE80FF11D2081211101C090E0AA
S1130230282F30E0E1E0F0E0EC0FFD1FE20FF31FA8
S113024040814111E4CF9130D9F28CE192E0F6D0B3
S113025004C061E070E087E558D03099FACF60EDD2
S113026070E086E452D080B18F70823061F08830C3
S113027099F08130B9F404C061E070E087E545D0BD
S11302800099FACF0FC061E070E086E43ED00AC066
S113029061E070E087E539D03099FACF60ED70E025
S11302A086E433D01092080115C080E042DFBC011F
S11302B080E090E068D120E030E040E05FE3F1D1FD
S11302C020E030E042EC52E4CED031D1709389008A
S11302D0609388003199E9CF15C081E02ADFBC0121
S11302E080E090E050D120E030E040E05FE3D9D1FD
S11302F020E030E042EC52E4B6D019D170938B0088
S113030060938A003399E9CFAECF863451F18735B3
S113031009F04DC0AB01440F551F460F571F440F42
S1130320551F569547955695479560E070E015C062
S1130330FC01EC5FFD4F208120930801EFEBFDE50C
S11303403197F1F700C00000019602C080E090E010
S11303508430910568F36F5F7F4F64177507B0F3BE
S11303600895AB01440F551F460F571F440F551FE7
S1130370569547955695479560E070E015C0FC0189
S1130380E050FE4F208120930801EFEBFDE531970B
S1130390F1F700C00000019602C080E090E08430D4
S11303A0910568F36F5F7F4F64177507B0F3089585
S11303B09091C00095FFFCCF8093C60008951092E1
S11303C0C0001092C50087E68093C40088E980933A
S11303D0C10086E08093C20008951F920F920FB669
S11303E00F9211240BB60F928F93EF93FF9380918A
S11303F0C6008D3061F4E0913802F0E0E75CFD4F17
S113040010821092380281E0809352020DC08A302B
S113041059F0E0913802F0E0E75CFD4F8083809171
S113042038028F5F80933802FF91EF918F910F9084
S11304300BBE0F900FBE0F901F9018950F931F9334
S1130440CF938C01C0E002C0B3DFCF5FF801EC0FA3
S1130450F11D80818111F8CF8DE0AADFCF911F912A
S11304600F9108955058BB27AA270ED0E0C0D1D0D1
S113047030F0D6D020F031F49F3F11F41EF4C6C002
S11304800EF4E095E7FBBCC0E92FE2D080F3BA1785
S1130490620773078407950718F071F49EF5FAC094
S11304A00EF4E0950B2EBA2FA02D0B01B90190018B
S11304B00C01CA01A0011124FF27591B99F0593FCF
S11304C050F4503E68F11A16F040A22F232F342F17
S11304D04427585FF3CF469537952795A795F04065
S11304E05395C9F77EF41F16BA0B620B730B840B7A
S11304F0BAF09150A1F0FF0FBB1F661F771F881F32
S1130500C2F70EC0BA0F621F731F841F48F4879589
S113051077956795B795F7959E3F08F0B3CF939578
S1130520880F08F09927EE0F97958795089598D02E
S113053088F09F5790F0B92F9927B751A0F0D1F0C8
S1130540660F771F881F991F1AF0BA95C9F712C052
S1130550B13081F09FD0B1E008959CC0672F782F0F
S11305608827B85F39F0B93FCCF3869577956795BE
S1130570B395D9F73EF490958095709561957F4F2A
S11305808F4F9F4F0895E89409C097FB3EF49095D0
S11305908095709561957F4F8F4F9F4F9923A9F058
S11305A0F92F96E9BB279395F695879577956795E7
S11305B0B795F111F8CFFAF4BB0F11F460FF1BC02B
S11305C06F5F7F4F8F4F9F4F16C0882311F096E9BE
S11305D011C0772321F09EE8872F762F05C066236C
S11305E071F096E8862F70E060E02AF09A95660F25
S11305F0771F881FDAF7880F9695879597F90895DE
S113060097F99F6780E870E060E008959FEF80ECC1
S1130610089500240A941616170618060906089564
S113062000240A9412161306140605060895092ECA
S11306300394000C11F4882352F0BB0F40F4BF2B39
S113064011F460FF04C06F5F7F4F8F4F9F4F089579
S113065057FD9058440F551F59F05F3F71F047956F
S1130660880F97FB991F61F09F3F79F08795089554
S1130670121613061406551FF2CF4695F1DF08C073
S1130680161617061806991FF1CF86957105610590
S113069008940895E894BB2766277727CB0197F938
S11306A008950BD0C4CFB5DF28F0BADF18F0952336
S11306B009F0A6CFABCF1124EECFCADFA0F3959FEC
S11306C0D1F3950F50E0551F629FF001729FBB2735
S11306D0F00DB11D639FAA27F00DB11DAA1F649FE1
S11306E06627B00DA11D661F829F2227B00DA11D94
S11306F0621F739FB00DA11D621F839FA00D611D1A
S1130700221F749F3327A00D611D231F849F600D3A
S1130710211D822F762F6A2F11249F5750408AF073
S1130720E1F088234AF0EE0FFF1FBB1F661F771FFF
S1130730881F91505040A9F79E3F510570F060CF3B
S1130740AACF5F3FECF3983EDCF3869577956795E7
S1130750B795F795E7959F5FC1F7FE2B880F911D1D
S10F07609695879597F90895F894FFCFBB
S113076C080402010102040870617373776F7264E8
S113077C000000000000000000000000436F6E66E3
S113078C696775726174696F6E206D6F646520653D
S10B079C6E61626C65640000EB
S9030000FC
