:1000000071C000008EC000008CC000008AC00000DB
:1000100088C0000086C0000084C0000082C00000CC
:1000200080C000007EC000007CC000007AC00000DC
:1000300078C0000076C0000074C0000072C00000EC
:1000400070C000006EC000006CC000006AC00000FC
:1000500068C0000066C0000064C0000062C000000C
:1000600060C00000D3C200005CC000005AC00000A5
:1000700058C0000056C0000054C0000052C000002C
:1000800050C000004EC000004CC000004AC000003C
:1000900048C0000046C0000044C0000042C000004C
:1000A00040C000003EC000003CC000003AC000005C
:1000B00038C0000036C0000034C0000032C000006C
:1000C00030C000002EC000002CC000002AC000007C
:1000D00028C0000026C0000024C0000022C000008C
:1000E00020C0000011241FBECFEFD1E2DEBFCDBF84
:1000F00000E00CBF12E0A0E0B2E0EAE9F6E000E0C8
:100100000BBF02C007900D92A833B107D9F722E0C8
:10011000A8E3B2E001C01D92A435B207E1F730D0E8
:10012000BAC26ECF10BA8CEF81BB87E880937A0099
:100130000895ECE7F0E09081907E892B80838081A8
:1001400080668083EAE7F0E080818064808380912C
:100150007A0084FFFCCF80917900EAE7F0E090819B
:100160009061908390E008958FEF80930701109243
:10017000080111B882B917B888B980E684B9089522
:10018000CF93DF93CDB7DEB764970FB6F894DEBF99
:100190000FBECDBFE9DFC6DF2BD2789489E0E8E05F
:1001A000F2E0DE01119601900D928A95E1F7FE01D1
:1001B0003A968BE0DF011D928A95E9F7E0E8F0E0DE
:1001C0008081826A8083E1E8F0E080818B618083B6
:1001D00088E893E190938700809386008AEF90E00F
:1001E000909389008093880090938B0080938A007D
:1001F00091E080E023C0209152022130F9F4109266
:10020000520211C0F901E75CFD4F2081421301C089
:100210008F5FE1E0F0E0EC0FFD1FE80FF11D2081A2
:10022000211101C090E0282F30E0E1E0F0E0EC0F78
:10023000FD1FE20FF31F40814111E4CF9130D9F24D
:100240008CE192E014D204C061E070E087E576D1E1
:100250003099FACF60ED70E086E470D1A12CB12C1A
:10026000612C712C412C512CC12CD12C00E010E0C0
:100270000F2EF0E1EF2EF7E2FF2EF02D80B18F7000
:10028000823079F08830C9F0813019F507C061E01B
:1002900070E087E553D1BFEFEB1AFB0A0099F7CF67
:1002A00018C061E070E086E449D1E1E0EE1AF1089F
:1002B00010C061E070E087E541D13099FACF60ED80
:1002C00070E086E43BD10F2EF8EEEF2EF3E0FF2E28
:1002D000F02D1092080180E02CDF880F991F8F59B4
:1002E0009F4F909389008093880081E022DF880FE0
:1002F000991F8F599F4F90938B0080938A0008C05D
:10030000009B02C027016C01019B02C057013C0108
:100310003199F6CF339BB2CF2BED31E0309389008A
:1003200020938800C816D90670F011C010938B0076
:1003300000938A00AFE3BCE91197F1F700C0000019
:100340000150110901C08C01C016D10678F38C153B
:100350009D0570F011C010938B0000938A00EFE3AD
:10036000FCE93197F1F700C000000F5F1F4F01C09B
:100370008C010C151D0578F34E145F0490F015C028
:1003800061E070E086E4DAD0F1E0EF1AF1088FE383
:100390009CE90197F1F700C0000091E0891A9108EB
:1003A00001C047014814590458F30415150588F095
:1003B00014C061E070E087E5C1D0AFEFEA1AFA0A35
:1003C000EFE3FCE93197F1F700C000000F5F1F4F2A
:1003D00001C087010415150560F38FEA90E0909342
:1003E000890080938800FFEF29E688E1F1502040E2
:1003F0008040E1F700C0000086010CC010938B0024
:1004000000938A00AFE3BCE91197F1F700C0000048
:10041000015011090B3F110588F7BFEFE1EEF4E041
:10042000B150E040F040E1F700C00000AE14BF045E
:1004300090F015C061E070E086E480D021E0E21A1F
:10044000F1088FE39CE90197F1F700C0000091E00B
:10045000891A910801C04701A814B90458F30A1574
:100460001B0570F010C061E070E087E567D0AFE376
:10047000BCE91197F1F700C00000BFEFEB1AFB0ACF
:10048000EA14FB0480F36016710668F010C09093C4
:100490008B0080938A00EFE3FCE93197F1F700C00D
:1004A0000000019701C0C8016816790680F306159F
:1004B000170568F00FC010938B0000938A008FE33C
:1004C0009CE90197F1F700C000000F5F1F4F061570
:1004D000170588F38BED91E0909389008093880055
:1004E0009FEFA9E6B8E19150A040B040E1F700C00D
:1004F000000086010CC010938B0000938A00EFE38C
:10050000FCE93197F1F700C00000015011090B3FE1
:10051000110588F704C061E070E087E50FD03099DD
:10052000FACF60ED70E086E409D03399FECF0F2E4C
:10053000F0E1EF2EF7E2FF2EF02DA0CE863451F140
:10054000873509F04DC0AB01440F551F460F571FAB
:10055000440F551F569547955695479560E070E0B6
:1005600015C0FC01EC5FFD4F208120930801EFEBEB
:10057000FDE53197F1F700C00000019602C080E070
:1005800090E08430910568F36F5F7F4F64177507C3
:10059000B0F30895AB01440F551F460F571F440F8A
:1005A000551F569547955695479560E070E015C0E4
:1005B000FC01E050FE4F208120930801EFEBFDE5A8
:1005C0003197F1F700C00000019602C080E090E092
:1005D0008430910568F36F5F7F4F64177507B0F340
:1005E00008959091C00095FFFCCF8093C6000895B8
:1005F0001092C0001092C50087E68093C40088E97D
:100600008093C10086E08093C20008951F920F92EC
:100610000FB60F9211240BB60F928F93EF93FF93A7
:100620008091C6008D3061F4E0913802F0E0E75C23
:10063000FD4F10821092380281E0809352020DC06B
:100640008A3059F0E0913802F0E0E75CFD4F80839A
:10065000809138028F5F80933802FF91EF918F91E4
:100660000F900BBE0F900FBE0F901F9018950F9319
:100670001F93CF938C01C0E002C0B3DFCF5FF801BE
:10068000EC0FF11D80818111F8CF8DE0AADFCF91B1
:0A0690001F910F910895F894FFCF19
:10069A00080402010102040870617373776F7264BF
:1006AA00000000000000000000000000436F6E66BA
:1006BA00696775726174696F6E206D6F6465206514
:0806CA006E61626C65640000C2
:00000001FF
