S014000066696E616C70726F6A6563742E737265630F
S113000071C000008EC000008CC000008AC00000D7
S113001088C0000086C0000084C0000082C00000C8
S113002080C000007EC000007CC000007AC00000D8
S113003078C0000076C0000074C0000072C00000E8
S113004070C000006EC000006CC000006AC00000F8
S113005068C0000066C0000064C0000062C0000008
S113006060C0000085C100005CC000005AC00000F0
S113007058C0000056C0000054C0000052C0000028
S113008050C000004EC000004CC000004AC0000038
S113009048C0000046C0000044C0000042C0000048
S11300A040C000003EC000003CC000003AC0000058
S11300B038C0000036C0000034C0000032C0000068
S11300C030C000002EC000002CC000002AC0000078
S11300D028C0000026C0000024C0000022C0000088
S11300E020C0000011241FBECFEFD1E2DEBFCDBF80
S11300F000E00CBF12E0A0E0B2E0EEEFF3E000E0BD
S11301000BBF02C007900D92A833B107D9F722E0C4
S1130110A8E3B2E001C01D92A435B207E1F732D0E2
S11301206CC16ECF10BA8CEF81BB87E880937A00E4
S11301300895ECE7F0E08081807E80838081806494
S11301408083EAE7F0E080818064808380917A0094
S113015084FFFCCF309178008091790090E0982F53
S11301608827EAE7F0E0208120612083832B08952B
S11301708FEF809307011092080111B882B917B864
S113018088B90895CF93DF93CDB7DEB764970FB6E0
S1130190F894DEBF0FBECDBFEBDFC4DFDBD07894B5
S11301A089E0E8E0F2E0DE01119601900D928A9573
S11301B0E1F7FE013A968BE0DF011D928A95E9F79B
S11301C0E0E8F0E08081826A8083E1E8F0E0808109
S11301D08B61808387E893E1909387008093860006
S11301E080E284B991E080E023C020915202213062
S11301F0F9F41092520211C0F901E75CFD4F20811D
S1130200421301C08F5FE1E0F0E0EC0FFD1FE80F47
S1130210F11D2081211101C090E0282F30E0E1E0A0
S1130220F0E0EC0FFD1FE20FF31F40814111E4CF1A
S11302309130D9F28CE192E0CCD004C061E070E05E
S113024087E52ED03099FACF60ED70E086E428D0AF
S113025080B18F70823061F0883099F08130B9F4C8
S113026004C061E070E087E51BD00099FACF0FC0AD
S113027061E070E086E414D00AC061E070E087E5D4
S11302800FD03099FACF60ED70E086E409D0109277
S1130290080180E04EDF9093890080938800D8CFD6
S11302A0863451F1873509F04DC0AB01440F551F19
S11302B0460F571F440F551F56954795569547951A
S11302C060E070E015C0FC01EC5FFD4F20812093DD
S11302D00801EFEBFDE53197F1F700C0000001964E
S11302E002C080E090E08430910568F36F5F7F4F37
S11302F064177507B0F30895AB01440F551F460FFB
S1130300571F440F551F569547955695479560E0DE
S113031070E015C0FC01E050FE4F208120930801DD
S1130320EFEBFDE53197F1F700C00000019602C044
S113033080E090E08430910568F36F5F7F4F64172D
S11303407507B0F308959091C00095FFFCCF80939A
S1130350C60008951092C0001092C50087E68093ED
S1130360C40088E98093C10086E08093C2000895A8
S11303701F920F920FB60F9211240BB60F928F9308
S1130380EF93FF938091C6008D3061F4E0913802C1
S1130390F0E0E75CFD4F10821092380281E0809318
S11303A052020DC08A3059F0E0913802F0E0E75C67
S11303B0FD4F8083809138028F5F80933802FF91D4
S11303C0EF918F910F900BBE0F900FBE0F901F9067
S11303D018950F931F93CF938C01C0E002C0B3DF35
S11303E0CF5FF801EC0FF11D80818111F8CF8DE012
S11103F0AADFCF911F910F910895F894FFCFCB
S11303FE080402010102040870617373776F72645A
S113040E000000000000000000000000436F6E6654
S113041E696775726174696F6E206D6F64652065AE
S10B042E6E61626C656400005C
S9030000FC
